{
    "address": "0xEeD60dFB5aB37294Bce410FBa0088Bd9Bb252E75",
    "abi": [
        {
            "inputs": [
                {
                    "internalType": "address",
                    "name": "priceFeedAddress",
                    "type": "address"
                }
            ],
            "stateMutability": "nonpayable",
            "type": "constructor"
        },
        {
            "inputs": [],
            "name": "FundMe__NotOwner",
            "type": "error"
        },
        {
            "stateMutability": "payable",
            "type": "fallback"
        },
        {
            "inputs": [],
            "name": "MINIMUM_USD",
            "outputs": [
                {
                    "internalType": "uint256",
                    "name": "",
                    "type": "uint256"
                }
            ],
            "stateMutability": "view",
            "type": "function"
        },
        {
            "inputs": [],
            "name": "cheaperWithdraw",
            "outputs": [],
            "stateMutability": "nonpayable",
            "type": "function"
        },
        {
            "inputs": [],
            "name": "fund",
            "outputs": [],
            "stateMutability": "payable",
            "type": "function"
        },
        {
            "inputs": [
                {
                    "internalType": "address",
                    "name": "fundingAddress",
                    "type": "address"
                }
            ],
            "name": "getAddressToAmountFunded",
            "outputs": [
                {
                    "internalType": "uint256",
                    "name": "",
                    "type": "uint256"
                }
            ],
            "stateMutability": "view",
            "type": "function"
        },
        {
            "inputs": [
                {
                    "internalType": "uint256",
                    "name": "index",
                    "type": "uint256"
                }
            ],
            "name": "getFunders",
            "outputs": [
                {
                    "internalType": "address",
                    "name": "",
                    "type": "address"
                }
            ],
            "stateMutability": "view",
            "type": "function"
        },
        {
            "inputs": [],
            "name": "getOwner",
            "outputs": [
                {
                    "internalType": "address",
                    "name": "",
                    "type": "address"
                }
            ],
            "stateMutability": "view",
            "type": "function"
        },
        {
            "inputs": [],
            "name": "getPriceFeed",
            "outputs": [
                {
                    "internalType": "contract AggregatorV3Interface",
                    "name": "",
                    "type": "address"
                }
            ],
            "stateMutability": "view",
            "type": "function"
        },
        {
            "inputs": [],
            "name": "withdraw",
            "outputs": [],
            "stateMutability": "nonpayable",
            "type": "function"
        },
        {
            "stateMutability": "payable",
            "type": "receive"
        }
    ],
    "transactionHash": "0x78e34681560ad292726b132eeac91c3561665377acb8f446bf131a13e7b7e6e6",
    "args": [
        "0x694AA1769357215DE4FAC081bf1f309aDC325306"
    ],
    "numDeployments": 4,
    "solcInputHash": "4ded8d762385989f789968edde04c912",
    "bytecode": "0x60a06040523480156200001157600080fd5b506040516200130538038062001305833981810160405281019062000037919062000120565b3373ffffffffffffffffffffffffffffffffffffffff1660808173ffffffffffffffffffffffffffffffffffffffff1660601b8152505080600260006101000a81548173ffffffffffffffffffffffffffffffffffffffff021916908373ffffffffffffffffffffffffffffffffffffffff1602179055505062000152565b600080fd5b600073ffffffffffffffffffffffffffffffffffffffff82169050919050565b6000620000e882620000bb565b9050919050565b620000fa81620000db565b81146200010657600080fd5b50565b6000815190506200011a81620000ef565b92915050565b600060208284031215620001395762000138620000b6565b5b6000620001498482850162000109565b91505092915050565b60805160601c6111866200017f60003960008181610397015281816105e6015261063601526111866000f3fe60806040526004361061007f5760003560e01c8063893d20e81161004e578063893d20e8146101545780639e87a5cd1461017f578063b60d4288146101aa578063be2693f0146101b45761008e565b80630343fb25146100985780633a7b6c74146100d55780633ccfd60b146101125780636b69a592146101295761008e565b3661008e5761008c6101cb565b005b6100966101cb565b005b3480156100a457600080fd5b506100bf60048036038101906100ba9190610abe565b610305565b6040516100cc9190610b04565b60405180910390f35b3480156100e157600080fd5b506100fc60048036038101906100f79190610b4b565b61034d565b6040516101099190610b87565b60405180910390f35b34801561011e57600080fd5b50610127610395565b005b34801561013557600080fd5b5061013e6105d5565b60405161014b9190610b04565b60405180910390f35b34801561016057600080fd5b506101696105e2565b6040516101769190610b87565b60405180910390f35b34801561018b57600080fd5b5061019461060a565b6040516101a19190610c01565b60405180910390f35b6101b26101cb565b005b3480156101c057600080fd5b506101c9610634565b005b6802b5e3af16b188000061020a600260009054906101000a900473ffffffffffffffffffffffffffffffffffffffff16346108d890919063ffffffff16565b101561024b576040517f08c379a000000000000000000000000000000000000000000000000000000000815260040161024290610c79565b60405180910390fd5b346000803373ffffffffffffffffffffffffffffffffffffffff1673ffffffffffffffffffffffffffffffffffffffff16815260200190815260200160002060008282546102999190610cc8565b925050819055506001339080600181540180825580915050600190039060005260206000200160009091909190916101000a81548173ffffffffffffffffffffffffffffffffffffffff021916908373ffffffffffffffffffffffffffffffffffffffff160217905550565b60008060008373ffffffffffffffffffffffffffffffffffffffff1673ffffffffffffffffffffffffffffffffffffffff168152602001908152602001600020549050919050565b60006001828154811061036357610362610d1e565b5b9060005260206000200160009054906101000a900473ffffffffffffffffffffffffffffffffffffffff169050919050565b7f000000000000000000000000000000000000000000000000000000000000000073ffffffffffffffffffffffffffffffffffffffff163373ffffffffffffffffffffffffffffffffffffffff161461041a576040517f579610db00000000000000000000000000000000000000000000000000000000815260040160405180910390fd5b60005b6001805490508110156104c5576000600182815481106104405761043f610d1e565b5b9060005260206000200160009054906101000a900473ffffffffffffffffffffffffffffffffffffffff16905060008060008373ffffffffffffffffffffffffffffffffffffffff1673ffffffffffffffffffffffffffffffffffffffff168152602001908152602001600020819055505080806104bd90610d4d565b91505061041d565b50600067ffffffffffffffff8111156104e1576104e0610d96565b5b60405190808252806020026020018201604052801561050f5781602001602082028036833780820191505090505b50600190805190602001906105259291906109b4565b5060003373ffffffffffffffffffffffffffffffffffffffff164760405161054c90610df6565b60006040518083038185875af1925050503d8060008114610589576040519150601f19603f3d011682016040523d82523d6000602084013e61058e565b606091505b50509050806105d2576040517f08c379a00000000000000000000000000000000000000000000000000000000081526004016105c990610e57565b60405180910390fd5b50565b6802b5e3af16b188000081565b60007f0000000000000000000000000000000000000000000000000000000000000000905090565b6000600260009054906101000a900473ffffffffffffffffffffffffffffffffffffffff16905090565b7f000000000000000000000000000000000000000000000000000000000000000073ffffffffffffffffffffffffffffffffffffffff163373ffffffffffffffffffffffffffffffffffffffff16146106b9576040517f579610db00000000000000000000000000000000000000000000000000000000815260040160405180910390fd5b6000600180548060200260200160405190810160405280929190818152602001828054801561073d57602002820191906000526020600020905b8160009054906101000a900473ffffffffffffffffffffffffffffffffffffffff1673ffffffffffffffffffffffffffffffffffffffff16815260200190600101908083116106f3575b5050505050905060005b81518110156107c757600082828151811061076557610764610d1e565b5b6020026020010151905060008060008373ffffffffffffffffffffffffffffffffffffffff1673ffffffffffffffffffffffffffffffffffffffff168152602001908152602001600020819055505080806107bf90610d4d565b915050610747565b50600067ffffffffffffffff8111156107e3576107e2610d96565b5b6040519080825280602002602001820160405280156108115781602001602082028036833780820191505090505b50600190805190602001906108279291906109b4565b5060003373ffffffffffffffffffffffffffffffffffffffff164760405161084e90610df6565b60006040518083038185875af1925050503d806000811461088b576040519150601f19603f3d011682016040523d82523d6000602084013e610890565b606091505b50509050806108d4576040517f08c379a00000000000000000000000000000000000000000000000000000000081526004016108cb90610e57565b60405180910390fd5b5050565b6000806108e483610914565b90506000670de0b6b3a764000085836108fd9190610e77565b6109079190610f00565b9050809250505092915050565b6000808273ffffffffffffffffffffffffffffffffffffffff1663feaf968c6040518163ffffffff1660e01b815260040160a06040518083038186803b15801561095d57600080fd5b505afa158015610971573d6000803e3d6000fd5b505050506040513d601f19601f820116820180604052508101906109959190610fbe565b5050509150506402540be400816109ac9190611039565b915050919050565b828054828255906000526020600020908101928215610a2d579160200282015b82811115610a2c5782518260006101000a81548173ffffffffffffffffffffffffffffffffffffffff021916908373ffffffffffffffffffffffffffffffffffffffff160217905550916020019190600101906109d4565b5b509050610a3a9190610a3e565b5090565b5b80821115610a57576000816000905550600101610a3f565b5090565b600080fd5b600073ffffffffffffffffffffffffffffffffffffffff82169050919050565b6000610a8b82610a60565b9050919050565b610a9b81610a80565b8114610aa657600080fd5b50565b600081359050610ab881610a92565b92915050565b600060208284031215610ad457610ad3610a5b565b5b6000610ae284828501610aa9565b91505092915050565b6000819050919050565b610afe81610aeb565b82525050565b6000602082019050610b196000830184610af5565b92915050565b610b2881610aeb565b8114610b3357600080fd5b50565b600081359050610b4581610b1f565b92915050565b600060208284031215610b6157610b60610a5b565b5b6000610b6f84828501610b36565b91505092915050565b610b8181610a80565b82525050565b6000602082019050610b9c6000830184610b78565b92915050565b6000819050919050565b6000610bc7610bc2610bbd84610a60565b610ba2565b610a60565b9050919050565b6000610bd982610bac565b9050919050565b6000610beb82610bce565b9050919050565b610bfb81610be0565b82525050565b6000602082019050610c166000830184610bf2565b92915050565b600082825260208201905092915050565b7f596f75206e65656420746f207370656e64206d6f726520455448210000000000600082015250565b6000610c63601b83610c1c565b9150610c6e82610c2d565b602082019050919050565b60006020820190508181036000830152610c9281610c56565b9050919050565b7f4e487b7100000000000000000000000000000000000000000000000000000000600052601160045260246000fd5b6000610cd382610aeb565b9150610cde83610aeb565b9250827fffffffffffffffffffffffffffffffffffffffffffffffffffffffffffffffff03821115610d1357610d12610c99565b5b828201905092915050565b7f4e487b7100000000000000000000000000000000000000000000000000000000600052603260045260246000fd5b6000610d5882610aeb565b91507fffffffffffffffffffffffffffffffffffffffffffffffffffffffffffffffff821415610d8b57610d8a610c99565b5b600182019050919050565b7f4e487b7100000000000000000000000000000000000000000000000000000000600052604160045260246000fd5b600081905092915050565b50565b6000610de0600083610dc5565b9150610deb82610dd0565b600082019050919050565b6000610e0182610dd3565b9150819050919050565b7f43616c6c206661696c6564000000000000000000000000000000000000000000600082015250565b6000610e41600b83610c1c565b9150610e4c82610e0b565b602082019050919050565b60006020820190508181036000830152610e7081610e34565b9050919050565b6000610e8282610aeb565b9150610e8d83610aeb565b9250817fffffffffffffffffffffffffffffffffffffffffffffffffffffffffffffffff0483118215151615610ec657610ec5610c99565b5b828202905092915050565b7f4e487b7100000000000000000000000000000000000000000000000000000000600052601260045260246000fd5b6000610f0b82610aeb565b9150610f1683610aeb565b925082610f2657610f25610ed1565b5b828204905092915050565b600069ffffffffffffffffffff82169050919050565b610f5081610f31565b8114610f5b57600080fd5b50565b600081519050610f6d81610f47565b92915050565b6000819050919050565b610f8681610f73565b8114610f9157600080fd5b50565b600081519050610fa381610f7d565b92915050565b600081519050610fb881610b1f565b92915050565b600080600080600060a08688031215610fda57610fd9610a5b565b5b6000610fe888828901610f5e565b9550506020610ff988828901610f94565b945050604061100a88828901610fa9565b935050606061101b88828901610fa9565b925050608061102c88828901610f5e565b9150509295509295909350565b600061104482610f73565b915061104f83610f73565b9250827f7fffffffffffffffffffffffffffffffffffffffffffffffffffffffffffffff048211600084136000841316161561108e5761108d610c99565b5b817f800000000000000000000000000000000000000000000000000000000000000005831260008412600084131616156110cb576110ca610c99565b5b827f8000000000000000000000000000000000000000000000000000000000000000058212600084136000841216161561110857611107610c99565b5b827f7fffffffffffffffffffffffffffffffffffffffffffffffffffffffffffffff058212600084126000841216161561114557611144610c99565b5b82820290509291505056fea2646970667358221220c0f8bd9865f382492919315b35fdb02af5ae5ea4aca3e9130492d6ce94bfbd8064736f6c63430008080033",
    "devdoc": {
        "author": "Carl",
        "details": "This implements price feeds as our library",
        "kind": "dev",
        "methods": {
            "fund()": {
                "details": "This implements price feeds as our library"
            }
        },
        "title": "A contract for crowd funding",
        "version": 1
    },
    "userdoc": {
        "kind": "user",
        "methods": {
            "constructor": {
                "notice": "constructor receive fallback external public internal private view / pure"
            },
            "fund()": {
                "notice": "This function funds this contract"
            }
        },
        "notice": "This contract is to demo a sample funding contract",
        "version": 1
    },
    "storageLayout": {
        "storage": [
            {
                "astId": 325,
                "contract": "contracts/FundMe.sol:FundMe",
                "label": "s_addressToAmountFunded",
                "offset": 0,
                "slot": "0",
                "type": "t_mapping(t_address,t_uint256)"
            },
            {
                "astId": 328,
                "contract": "contracts/FundMe.sol:FundMe",
                "label": "s_funders",
                "offset": 0,
                "slot": "1",
                "type": "t_array(t_address)dyn_storage"
            },
            {
                "astId": 340,
                "contract": "contracts/FundMe.sol:FundMe",
                "label": "s_priceFeed",
                "offset": 0,
                "slot": "2",
                "type": "t_contract(AggregatorV3Interface)104"
            }
        ],
        "types": {
            "t_address": {
                "encoding": "inplace",
                "label": "address",
                "numberOfBytes": "20"
            },
            "t_array(t_address)dyn_storage": {
                "base": "t_address",
                "encoding": "dynamic_array",
                "label": "address[]",
                "numberOfBytes": "32"
            },
            "t_contract(AggregatorV3Interface)104": {
                "encoding": "inplace",
                "label": "contract AggregatorV3Interface",
                "numberOfBytes": "20"
            },
            "t_mapping(t_address,t_uint256)": {
                "encoding": "mapping",
                "key": "t_address",
                "label": "mapping(address => uint256)",
                "numberOfBytes": "32",
                "value": "t_uint256"
            },
            "t_uint256": {
                "encoding": "inplace",
                "label": "uint256",
                "numberOfBytes": "32"
            }
        }
    }
}